{
  "abi": [
    {
      "type": "constructor",
      "inputs": [
        {
          "name": "_users",
          "type": "address[]",
          "internalType": "address[]"
        },
        {
          "name": "_requiredApprovals",
          "type": "uint256",
          "internalType": "uint256"
        }
      ],
      "stateMutability": "nonpayable"
    },
    {
      "type": "receive",
      "stateMutability": "payable"
    },
    {
      "type": "function",
      "name": "addTransaction",
      "inputs": [
        {
          "name": "_target",
          "type": "address",
          "internalType": "address"
        },
        {
          "name": "_amount",
          "type": "uint256",
          "internalType": "uint256"
        },
        {
          "name": "_payload",
          "type": "bytes",
          "internalType": "bytes"
        }
      ],
      "outputs": [],
      "stateMutability": "nonpayable"
    },
    {
      "type": "function",
      "name": "approveTransaction",
      "inputs": [
        {
          "name": "_txID",
          "type": "uint256",
          "internalType": "uint256"
        }
      ],
      "outputs": [],
      "stateMutability": "nonpayable"
    },
    {
      "type": "function",
      "name": "authorizedUsers",
      "inputs": [
        {
          "name": "",
          "type": "uint256",
          "internalType": "uint256"
        }
      ],
      "outputs": [
        {
          "name": "",
          "type": "address",
          "internalType": "address"
        }
      ],
      "stateMutability": "view"
    },
    {
      "type": "function",
      "name": "countTransactions",
      "inputs": [],
      "outputs": [
        {
          "name": "",
          "type": "uint256",
          "internalType": "uint256"
        }
      ],
      "stateMutability": "view"
    },
    {
      "type": "function",
      "name": "executeTransaction",
      "inputs": [
        {
          "name": "_txID",
          "type": "uint256",
          "internalType": "uint256"
        }
      ],
      "outputs": [],
      "stateMutability": "nonpayable"
    },
    {
      "type": "function",
      "name": "fetchTransaction",
      "inputs": [
        {
          "name": "_txID",
          "type": "uint256",
          "internalType": "uint256"
        }
      ],
      "outputs": [
        {
          "name": "target",
          "type": "address",
          "internalType": "address"
        },
        {
          "name": "amount",
          "type": "uint256",
          "internalType": "uint256"
        },
        {
          "name": "payload",
          "type": "bytes",
          "internalType": "bytes"
        },
        {
          "name": "hasBeenExecuted",
          "type": "bool",
          "internalType": "bool"
        },
        {
          "name": "approvalCount",
          "type": "uint256",
          "internalType": "uint256"
        }
      ],
      "stateMutability": "view"
    },
    {
      "type": "function",
      "name": "hasConfirmed",
      "inputs": [
        {
          "name": "",
          "type": "uint256",
          "internalType": "uint256"
        },
        {
          "name": "",
          "type": "address",
          "internalType": "address"
        }
      ],
      "outputs": [
        {
          "name": "",
          "type": "bool",
          "internalType": "bool"
        }
      ],
      "stateMutability": "view"
    },
    {
      "type": "function",
      "name": "isAuthorized",
      "inputs": [
        {
          "name": "",
          "type": "address",
          "internalType": "address"
        }
      ],
      "outputs": [
        {
          "name": "",
          "type": "bool",
          "internalType": "bool"
        }
      ],
      "stateMutability": "view"
    },
    {
      "type": "function",
      "name": "listUsers",
      "inputs": [],
      "outputs": [
        {
          "name": "",
          "type": "address[]",
          "internalType": "address[]"
        }
      ],
      "stateMutability": "view"
    },
    {
      "type": "function",
      "name": "pendingTransactions",
      "inputs": [
        {
          "name": "",
          "type": "uint256",
          "internalType": "uint256"
        }
      ],
      "outputs": [
        {
          "name": "target",
          "type": "address",
          "internalType": "address"
        },
        {
          "name": "amount",
          "type": "uint256",
          "internalType": "uint256"
        },
        {
          "name": "payload",
          "type": "bytes",
          "internalType": "bytes"
        },
        {
          "name": "hasBeenExecuted",
          "type": "bool",
          "internalType": "bool"
        },
        {
          "name": "approvalCount",
          "type": "uint256",
          "internalType": "uint256"
        }
      ],
      "stateMutability": "view"
    },
    {
      "type": "function",
      "name": "requiredApprovals",
      "inputs": [],
      "outputs": [
        {
          "name": "",
          "type": "uint256",
          "internalType": "uint256"
        }
      ],
      "stateMutability": "view"
    },
    {
      "type": "function",
      "name": "revokeConfirmation",
      "inputs": [
        {
          "name": "_txID",
          "type": "uint256",
          "internalType": "uint256"
        }
      ],
      "outputs": [],
      "stateMutability": "nonpayable"
    },
    {
      "type": "event",
      "name": "ConfirmationRevoked",
      "inputs": [
        {
          "name": "approver",
          "type": "address",
          "indexed": true,
          "internalType": "address"
        },
        {
          "name": "txID",
          "type": "uint256",
          "indexed": true,
          "internalType": "uint256"
        }
      ],
      "anonymous": false
    },
    {
      "type": "event",
      "name": "FundsDeposited",
      "inputs": [
        {
          "name": "depositor",
          "type": "address",
          "indexed": true,
          "internalType": "address"
        },
        {
          "name": "amount",
          "type": "uint256",
          "indexed": false,
          "internalType": "uint256"
        },
        {
          "name": "newBalance",
          "type": "uint256",
          "indexed": false,
          "internalType": "uint256"
        }
      ],
      "anonymous": false
    },
    {
      "type": "event",
      "name": "TransactionConfirmed",
      "inputs": [
        {
          "name": "approver",
          "type": "address",
          "indexed": true,
          "internalType": "address"
        },
        {
          "name": "txID",
          "type": "uint256",
          "indexed": true,
          "internalType": "uint256"
        }
      ],
      "anonymous": false
    },
    {
      "type": "event",
      "name": "TransactionExecuted",
      "inputs": [
        {
          "name": "executor",
          "type": "address",
          "indexed": true,
          "internalType": "address"
        },
        {
          "name": "txID",
          "type": "uint256",
          "indexed": true,
          "internalType": "uint256"
        }
      ],
      "anonymous": false
    },
    {
      "type": "event",
      "name": "TransactionSubmitted",
      "inputs": [
        {
          "name": "initiator",
          "type": "address",
          "indexed": true,
          "internalType": "address"
        },
        {
          "name": "txID",
          "type": "uint256",
          "indexed": true,
          "internalType": "uint256"
        },
        {
          "name": "target",
          "type": "address",
          "indexed": true,
          "internalType": "address"
        },
        {
          "name": "amount",
          "type": "uint256",
          "indexed": false,
          "internalType": "uint256"
        },
        {
          "name": "payload",
          "type": "bytes",
          "indexed": false,
          "internalType": "bytes"
        }
      ],
      "anonymous": false
    }
  ],
  "bytecode": {
    "object": "0x60806040523480156200001157600080fd5b506040516200148138038062001481833981016040819052620000349162000261565b60008251116200007c5760405162461bcd60e51b815260206004820152600e60248201526d155cd95c9cc81c995c5d5a5c995960921b60448201526064015b60405180910390fd5b6000811180156200008e575081518111155b620000dc5760405162461bcd60e51b815260206004820152601660248201527f496e76616c696420617070726f76616c20636f756e7400000000000000000000604482015260640162000073565b60005b8251811015620002235760008382815181106200010057620001006200033b565b6020026020010151905060006001600160a01b0316816001600160a01b0316036200015d5760405162461bcd60e51b815260206004820152600c60248201526b24b73b30b634b2103ab9b2b960a11b604482015260640162000073565b6001600160a01b03811660009081526001602052604090205460ff1615620001b95760405162461bcd60e51b815260206004820152600e60248201526d223ab83634b1b0ba32903ab9b2b960911b604482015260640162000073565b6001600160a01b031660008181526001602081905260408220805460ff191682179055815480820183559180527f290decd9548b62a8d60345a988386fc84ba6bc95484008f6362f93160ef3e56390910180546001600160a01b03191690921790915501620000df565b506002555062000351565b634e487b7160e01b600052604160045260246000fd5b80516001600160a01b03811681146200025c57600080fd5b919050565b600080604083850312156200027557600080fd5b82516001600160401b03808211156200028d57600080fd5b818501915085601f830112620002a257600080fd5b8151602082821115620002b957620002b96200022e565b8160051b604051601f19603f83011681018181108682111715620002e157620002e16200022e565b6040529283528183019350848101820192898411156200030057600080fd5b948201945b838610156200032957620003198662000244565b8552948201949382019362000305565b97909101519698969750505050505050565b634e487b7160e01b600052603260045260246000fd5b61112080620003616000396000f3fe6080604052600436106100ab5760003560e01c806399c1aadc1161006457806399c1aadc146101f6578063d8e7d36a1461021a578063ec096f8d14610252578063ee22610b14610272578063f81fc23014610292578063fe9fbb80146102a757600080fd5b806308aff933146100f157806320ea8d8614610141578063242232d11461016357806363a8374d14610183578063685067d5146101b45780638ad257b7146101d457600080fd5b366100ec576040805134815247602082015233917fbee4fe3675934fca827426c793623996a3079255089bda3a717019ffc5db2765910160405180910390a2005b600080fd5b3480156100fd57600080fd5b5061012c61010c366004610c0e565b600360209081526000928352604080842090915290825290205460ff1681565b60405190151581526020015b60405180910390f35b34801561014d57600080fd5b5061016161015c366004610c3a565b6102d7565b005b34801561016f57600080fd5b5061016161017e366004610c3a565b61046f565b34801561018f57600080fd5b506101a361019e366004610c3a565b610606565b604051610138959493929190610c99565b3480156101c057600080fd5b506101a36101cf366004610c3a565b6106df565b3480156101e057600080fd5b506101e96107da565b6040516101389190610cd4565b34801561020257600080fd5b5061020c60025481565b604051908152602001610138565b34801561022657600080fd5b5061023a610235366004610c3a565b61083c565b6040516001600160a01b039091168152602001610138565b34801561025e57600080fd5b5061016161026d366004610d37565b610866565b34801561027e57600080fd5b5061016161028d366004610c3a565b6109e6565b34801561029e57600080fd5b5060045461020c565b3480156102b357600080fd5b5061012c6102c2366004610e02565b60016020526000908152604090205460ff1681565b3360009081526001602052604090205460ff1661030f5760405162461bcd60e51b815260040161030690610e24565b60405180910390fd5b600454819081106103325760405162461bcd60e51b815260040161030690610e4a565b816004818154811061034657610346610e79565b600091825260209091206003600590920201015460ff161561037a5760405162461bcd60e51b815260040161030690610e8f565b60006004848154811061038f5761038f610e79565b600091825260208083208784526003825260408085203386529092529220546005909102909101915060ff166104075760405162461bcd60e51b815260206004820152601760248201527f4e6f207072696f7220617070726f76616c20666f756e640000000000000000006044820152606401610306565b600181600401600082825461041c9190610edc565b90915550506000848152600360209081526040808320338085529252808320805460ff191690555186927f795394da21278ca39d59bb3ca00efeebdc0679acc420916c7385c2c5d942656f91a350505050565b3360009081526001602052604090205460ff1661049e5760405162461bcd60e51b815260040161030690610e24565b600454819081106104c15760405162461bcd60e51b815260040161030690610e4a565b81600481815481106104d5576104d5610e79565b600091825260209091206003600590920201015460ff16156105095760405162461bcd60e51b815260040161030690610e8f565b6000838152600360209081526040808320338452909152902054839060ff16156105755760405162461bcd60e51b815260206004820152601c60248201527f5472616e73616374696f6e20616c726561647920617070726f766564000000006044820152606401610306565b60006004858154811061058a5761058a610e79565b9060005260206000209060050201905060018160040160008282546105af9190610ef5565b90915550506000858152600360209081526040808320338085529252808320805460ff191660011790555187927ff8a17c9136a3ae33364fac05eb088a3cbafee10c1889c88593e20ee2d8e4eb8891a35050505050565b6004818154811061061657600080fd5b60009182526020909120600590910201805460018201546002830180546001600160a01b03909316945090929161064c90610f08565b80601f016020809104026020016040519081016040528092919081815260200182805461067890610f08565b80156106c55780601f1061069a576101008083540402835291602001916106c5565b820191906000526020600020905b8154815290600101906020018083116106a857829003601f168201915b505050506003830154600490930154919260ff1691905085565b60008060606000806000600487815481106106fc576106fc610e79565b6000918252602090912060059091020180546001820154600383015460048401546002850180549596506001600160a01b039094169492939260ff90921691839061074690610f08565b80601f016020809104026020016040519081016040528092919081815260200182805461077290610f08565b80156107bf5780601f10610794576101008083540402835291602001916107bf565b820191906000526020600020905b8154815290600101906020018083116107a257829003601f168201915b50505050509250955095509550955095505091939590929450565b6060600080548060200260200160405190810160405280929190818152602001828054801561083257602002820191906000526020600020905b81546001600160a01b03168152600190910190602001808311610814575b5050505050905090565b6000818154811061084c57600080fd5b6000918252602090912001546001600160a01b0316905081565b3360009081526001602052604090205460ff166108955760405162461bcd60e51b815260040161030690610e24565b600480546040805160a0810182526001600160a01b03878116825260208201878152928201868152600060608401819052608084018190526001860187559590955281517f8a35acfbc15ff81a39ae7d344fd709f28e8600b4aa8c65c6b64bfe7fe36bd19b6005860290810180546001600160a01b0319169290931691909117825592517f8a35acfbc15ff81a39ae7d344fd709f28e8600b4aa8c65c6b64bfe7fe36bd19c84015593519293909290917f8a35acfbc15ff81a39ae7d344fd709f28e8600b4aa8c65c6b64bfe7fe36bd19d01906109729082610f93565b50606082015160038201805460ff19169115159190911790556080909101516004909101556040516001600160a01b03851690829033907f96d64a23b7f23d0f4f8e74c4a7123dab63f617f0ae03ff1006fc101d6b10478b906109d89088908890611053565b60405180910390a450505050565b3360009081526001602052604090205460ff16610a155760405162461bcd60e51b815260040161030690610e24565b60045481908110610a385760405162461bcd60e51b815260040161030690610e4a565b8160048181548110610a4c57610a4c610e79565b600091825260209091206003600590920201015460ff1615610a805760405162461bcd60e51b815260040161030690610e8f565b600060048481548110610a9557610a95610e79565b9060005260206000209060050201905060025481600401541015610af45760405162461bcd60e51b8152602060048201526016602482015275496e73756666696369656e7420617070726f76616c7360501b6044820152606401610306565b60038101805460ff191660019081179091558154908201546040516000926001600160a01b03169190610b2b906002860190611074565b60006040518083038185875af1925050503d8060008114610b68576040519150601f19603f3d011682016040523d82523d6000602084013e610b6d565b606091505b5050905080610bbe5760405162461bcd60e51b815260206004820152601c60248201527f5472616e73616374696f6e20657865637574696f6e206661696c6564000000006044820152606401610306565b604051859033907f4e86ad0da28cbaaaa7e93e36c43b32696e970535225b316f1b84fbf30bdc04e890600090a35050505050565b80356001600160a01b0381168114610c0957600080fd5b919050565b60008060408385031215610c2157600080fd5b82359150610c3160208401610bf2565b90509250929050565b600060208284031215610c4c57600080fd5b5035919050565b6000815180845260005b81811015610c7957602081850181015186830182015201610c5d565b506000602082860101526020601f19601f83011685010191505092915050565b60018060a01b038616815284602082015260a060408201526000610cc060a0830186610c53565b931515606083015250608001529392505050565b6020808252825182820181905260009190848201906040850190845b81811015610d155783516001600160a01b031683529284019291840191600101610cf0565b50909695505050505050565b634e487b7160e01b600052604160045260246000fd5b600080600060608486031215610d4c57600080fd5b610d5584610bf2565b925060208401359150604084013567ffffffffffffffff80821115610d7957600080fd5b818601915086601f830112610d8d57600080fd5b813581811115610d9f57610d9f610d21565b604051601f8201601f19908116603f01168101908382118183101715610dc757610dc7610d21565b81604052828152896020848701011115610de057600080fd5b8260208601602083013760006020848301015280955050505050509250925092565b600060208284031215610e1457600080fd5b610e1d82610bf2565b9392505050565b6020808252600c908201526b155b985d5d1a1bdc9a5e995960a21b604082015260600190565b602080825260159082015274151c985b9cd858dd1a5bdb881b9bdd08199bdd5b99605a1b604082015260600190565b634e487b7160e01b600052603260045260246000fd5b6020808252601c908201527f5472616e73616374696f6e20616c726561647920657865637574656400000000604082015260600190565b634e487b7160e01b600052601160045260246000fd5b81810381811115610eef57610eef610ec6565b92915050565b80820180821115610eef57610eef610ec6565b600181811c90821680610f1c57607f821691505b602082108103610f3c57634e487b7160e01b600052602260045260246000fd5b50919050565b601f821115610f8e576000816000526020600020601f850160051c81016020861015610f6b5750805b601f850160051c820191505b81811015610f8a57828155600101610f77565b5050505b505050565b815167ffffffffffffffff811115610fad57610fad610d21565b610fc181610fbb8454610f08565b84610f42565b602080601f831160018114610ff65760008415610fde5750858301515b600019600386901b1c1916600185901b178555610f8a565b600085815260208120601f198616915b8281101561102557888601518255948401946001909101908401611006565b50858210156110435787850151600019600388901b60f8161c191681555b5050505050600190811b01905550565b82815260406020820152600061106c6040830184610c53565b949350505050565b600080835461108281610f08565b6001828116801561109a57600181146110af576110de565b60ff19841687528215158302870194506110de565b8760005260208060002060005b858110156110d55781548a8201529084019082016110bc565b50505082870194505b5092969550505050505056fea2646970667358221220c9216a6bef00e2349e2d890e0bf65bea1ac4e430c14fb465c35e7b4f963be95164736f6c63430008180033",
    "linkReferences": {}
  },
  "methodIdentifiers": {
    "addTransaction(address,uint256,bytes)": "ec096f8d",
    "approveTransaction(uint256)": "242232d1",
    "authorizedUsers(uint256)": "d8e7d36a",
    "countTransactions()": "f81fc230",
    "executeTransaction(uint256)": "ee22610b",
    "fetchTransaction(uint256)": "685067d5",
    "hasConfirmed(uint256,address)": "08aff933",
    "isAuthorized(address)": "fe9fbb80",
    "listUsers()": "8ad257b7",
    "pendingTransactions(uint256)": "63a8374d",
    "requiredApprovals()": "99c1aadc",
    "revokeConfirmation(uint256)": "20ea8d86"
  },
  "id": 1
}