{"abi":[{"type":"constructor","inputs":[],"stateMutability":"nonpayable"},{"type":"function","name":"betCount","inputs":[],"outputs":[{"name":"","type":"uint256","internalType":"uint256"}],"stateMutability":"view"},{"type":"function","name":"bets","inputs":[{"name":"","type":"uint256","internalType":"uint256"}],"outputs":[{"name":"player","type":"address","internalType":"address"},{"name":"direction","type":"uint8","internalType":"enum BetreaConst.BetDirection"},{"name":"timestamp","type":"uint256","internalType":"uint256"},{"name":"amount","type":"uint256","internalType":"uint256"},{"name":"currentPrice","type":"uint256","internalType":"uint256"},{"name":"roundId","type":"uint80","internalType":"uint80"},{"name":"settled","type":"bool","internalType":"bool"}],"stateMutability":"view"},{"type":"function","name":"getLatestPrice","inputs":[],"outputs":[{"name":"","type":"int256","internalType":"int256"},{"name":"","type":"uint80","internalType":"uint80"}],"stateMutability":"view"},{"type":"function","name":"getRoundPrice","inputs":[{"name":"_roundId","type":"uint256","internalType":"uint256"}],"outputs":[{"name":"","type":"int256","internalType":"int256"}],"stateMutability":"view"},{"type":"function","name":"owner","inputs":[],"outputs":[{"name":"","type":"address","internalType":"address"}],"stateMutability":"view"},{"type":"function","name":"placeAndSettleBetWithTrue","inputs":[{"name":"_direction","type":"uint8","internalType":"enum BetreaConst.BetDirection"}],"outputs":[],"stateMutability":"payable"},{"type":"function","name":"placeBet","inputs":[{"name":"_direction","type":"uint8","internalType":"enum BetreaConst.BetDirection"}],"outputs":[],"stateMutability":"payable"},{"type":"function","name":"settleBet","inputs":[{"name":"_betId","type":"uint256","internalType":"uint256"}],"outputs":[],"stateMutability":"nonpayable"},{"type":"function","name":"withdraw","inputs":[],"outputs":[],"stateMutability":"nonpayable"},{"type":"event","name":"BetPlaced","inputs":[{"name":"betId","type":"uint256","indexed":true,"internalType":"uint256"},{"name":"player","type":"address","indexed":true,"internalType":"address"},{"name":"direction","type":"uint8","indexed":false,"internalType":"enum BetreaConst.BetDirection"},{"name":"amount","type":"uint256","indexed":false,"internalType":"uint256"},{"name":"targetPrice","type":"uint256","indexed":false,"internalType":"uint256"},{"name":"roundId","type":"uint80","indexed":false,"internalType":"uint80"}],"anonymous":false},{"type":"event","name":"BetSettled","inputs":[{"name":"betId","type":"uint256","indexed":true,"internalType":"uint256"},{"name":"player","type":"address","indexed":true,"internalType":"address"},{"name":"won","type":"bool","indexed":false,"internalType":"bool"},{"name":"payout","type":"uint256","indexed":false,"internalType":"uint256"}],"anonymous":false}],"bytecode":{"object":"0x608060405234801561001057600080fd5b50600080546001600160a01b03199081167343a444ac5d00b96daf62bc00c50fa47c1afcf3c3179091556003805490911633179055610df9806100546000396000f3fe6080604052600436106100865760003560e01c806360f56dda1161005957806360f56dda146101635780638bcb06ab146101765780638da5cb5b146101a45780638e15f473146101dc578063cf0944971461020e57600080fd5b806316fd381a1461008b57806322af00fa146100ad5780633ccfd60b1461013b5780634304684414610150575b600080fd5b34801561009757600080fd5b506100ab6100a6366004610b93565b610224565b005b3480156100b957600080fd5b5061011f6100c8366004610b93565b6001602081905260009182526040909120805491810154600282015460038301546004909301546001600160a01b0385169460ff600160a01b909104811694916001600160501b03811691600160501b9091041687565b6040516101329796959493929190610be4565b60405180910390f35b34801561014757600080fd5b506100ab61049d565b6100ab61015e366004610c35565b610574565b6100ab610171366004610c35565b610769565b34801561018257600080fd5b50610196610191366004610b93565b610a87565b604051908152602001610132565b3480156101b057600080fd5b506003546101c4906001600160a01b031681565b6040516001600160a01b039091168152602001610132565b3480156101e857600080fd5b506101f1610b09565b604080519283526001600160501b03909116602083015201610132565b34801561021a57600080fd5b5061019660025481565b6003546001600160a01b0316331461027e5760405162461bcd60e51b81526020600482015260186024820152774f6e6c79206f776e65722063616e2063616c6c207468697360401b60448201526064015b60405180910390fd5b60008181526001602081905260409091209081015442906102a0906008610c73565b106102df5760405162461bcd60e51b815260206004820152600f60248201526e10995d081b9bdd08195e1c1a5c9959608a1b6044820152606401610275565b6004810154600160501b900460ff16156103315760405162461bcd60e51b815260206004820152601360248201527210995d08185b1c9958591e481cd95d1d1b1959606a1b6044820152606401610275565b60048082015460009161034d916001600160501b031690610c8c565b90506000610363826001600160501b0316610a87565b9050806000808554600160a01b900460ff16600181111561038657610386610bac565b1480156103965750846003015482115b806103cb575060018554600160a01b900460ff1660018111156103bb576103bb610bac565b1480156103cb5750846003015482105b156103d4575060015b6000811561043457606486600201546103ed9190610cb3565b6103f8906078610cd5565b86546040519192506001600160a01b03169082156108fc029083906000818181858888f19350505050158015610432573d6000803e3d6000fd5b505b60048601805460ff60501b1916600160501b1790558554604080518415158152602081018490526001600160a01b039092169189917fe730d6310bec1dfc964bdf1e3f75a78c8ef2dee9d092f9ff09253258852ed7d4910160405180910390a350505050505050565b6003546001600160a01b031633146104f25760405162461bcd60e51b81526020600482015260186024820152774f6e6c79206f776e65722063616e2063616c6c207468697360401b6044820152606401610275565b47806105365760405162461bcd60e51b81526020600482015260136024820152724e6f206665657320746f20776974686472617760681b6044820152606401610275565b6003546040516001600160a01b039091169082156108fc029083906000818181858888f19350505050158015610570573d6000803e3d6000fd5b5050565b6000805460408051633fabe5a360e21b8152905183926001600160a01b03169163feaf968c9160048083019260a09291908290030181865afa1580156105be573d6000803e3d6000fd5b505050506040513d601f19601f820116820180604052508101906105e29190610d08565b50506002805493955091935083926000929091508261060083610d58565b9190505590506040518060e00160405280336001600160a01b0316815260200186600181111561063257610632610bac565b81524260208083019190915234604080840191909152606083018690526001600160501b0388166080840152600060a090930183905284835260018083529220835181546001600160a01b039091166001600160a01b0319821681178355928501519193919284926001600160a81b03199092161790600160a01b9084908111156106bf576106bf610bac565b02179055506040828101516001830155606083015160028301556080830151600383015560a08301516004909201805460c0909401511515600160501b026affffffffffffffffffffff199094166001600160501b039093169290921792909217905551339082907fc98f2ea68a4a7a71c1ba228331d7b3563fd38504e881a2019cf7cef691cb71359061075a908990349088908b90610d71565b60405180910390a35050505050565b6000805460408051633fabe5a360e21b8152905183926001600160a01b03169163feaf968c9160048083019260a09291908290030181865afa1580156107b3573d6000803e3d6000fd5b505050506040513d601f19601f820116820180604052508101906107d79190610d08565b5050600280549395509193508392600092909150826107f583610d58565b9190505590506040518060e00160405280336001600160a01b0316815260200186600181111561082757610827610bac565b81524260208083019190915234604080840191909152606083018690526001600160501b0388166080840152600060a090930183905284835260018083529220835181546001600160a01b039091166001600160a01b0319821681178355928501519193919284926001600160a81b03199092161790600160a01b9084908111156108b4576108b4610bac565b021790555060408201516001820155606082015160028201556080820151600382015560a08201516004918201805460c0909401511515600160501b026affffffffffffffffffffff199094166001600160501b039092169190911792909217909155600090610936906109289087610da3565b6001600160501b0316610a87565b90508060008088600181111561094e5761094e610bac565b14801561095a57508185115b806109805750600188600181111561097457610974610bac565b14801561098057508185105b15610989575060015b600081156109d95761099c606434610cb3565b6109a7906078610cd5565b604051909150339082156108fc029083906000818181858888f193505050501580156109d7573d6000803e3d6000fd5b505b60008581526001602052604090819020600401805460ff60501b1916600160501b17905551339086907fc98f2ea68a4a7a71c1ba228331d7b3563fd38504e881a2019cf7cef691cb713590610a35908d9034908c908f90610d71565b60405180910390a360408051831515815260208101839052339187917fe730d6310bec1dfc964bdf1e3f75a78c8ef2dee9d092f9ff09253258852ed7d4910160405180910390a3505050505050505050565b60008054604051639a6fc8f560e01b81526001600160501b038416600482015282916001600160a01b031690639a6fc8f59060240160a060405180830381865afa158015610ad9573d6000803e3d6000fd5b505050506040513d601f19601f82011682018060405250810190610afd9190610d08565b50919695505050505050565b60008060008060008054906101000a90046001600160a01b03166001600160a01b031663feaf968c6040518163ffffffff1660e01b815260040160a060405180830381865afa158015610b60573d6000803e3d6000fd5b505050506040513d601f19601f82011682018060405250810190610b849190610d08565b50919792965091945050505050565b600060208284031215610ba557600080fd5b5035919050565b634e487b7160e01b600052602160045260246000fd5b60028110610be057634e487b7160e01b600052602160045260246000fd5b9052565b6001600160a01b038816815260e08101610c016020830189610bc2565b6040820196909652606081019490945260808401929092526001600160501b031660a0830152151560c09091015292915050565b600060208284031215610c4757600080fd5b813560028110610c5657600080fd5b9392505050565b634e487b7160e01b600052601160045260246000fd5b80820180821115610c8657610c86610c5d565b92915050565b6001600160501b03818116838216019080821115610cac57610cac610c5d565b5092915050565b600082610cd057634e487b7160e01b600052601260045260246000fd5b500490565b8082028115828204841417610c8657610c86610c5d565b80516001600160501b0381168114610d0357600080fd5b919050565b600080600080600060a08688031215610d2057600080fd5b610d2986610cec565b9450602086015193506040860151925060608601519150610d4c60808701610cec565b90509295509295909350565b600060018201610d6a57610d6a610c5d565b5060010190565b60808101610d7f8287610bc2565b8460208301528360408301526001600160501b038316606083015295945050505050565b6001600160501b03828116828216039080821115610cac57610cac610c5d56fea2646970667358221220b3b4771505df3c7a852676b5fb957662bb03f4ccc909649e863b3aa5a5910da664736f6c63430008180033","linkReferences":{}},"methodIdentifiers":{"betCount()":"cf094497","bets(uint256)":"22af00fa","getLatestPrice()":"8e15f473","getRoundPrice(uint256)":"8bcb06ab","owner()":"8da5cb5b","placeAndSettleBetWithTrue(uint8)":"60f56dda","placeBet(uint8)":"43046844","settleBet(uint256)":"16fd381a","withdraw()":"3ccfd60b"},"id":0}