{
  "abi": [
    {
      "type": "constructor",
      "inputs": [],
      "stateMutability": "nonpayable"
    },
    {
      "type": "function",
      "name": "betCount",
      "inputs": [],
      "outputs": [
        {
          "name": "",
          "type": "uint256",
          "internalType": "uint256"
        }
      ],
      "stateMutability": "view"
    },
    {
      "type": "function",
      "name": "bets",
      "inputs": [
        {
          "name": "",
          "type": "uint256",
          "internalType": "uint256"
        }
      ],
      "outputs": [
        {
          "name": "player",
          "type": "address",
          "internalType": "address"
        },
        {
          "name": "direction",
          "type": "uint8",
          "internalType": "enum Betrea.BetDirection"
        },
        {
          "name": "amount",
          "type": "uint256",
          "internalType": "uint256"
        },
        {
          "name": "targetPrice",
          "type": "uint256",
          "internalType": "uint256"
        },
        {
          "name": "settled",
          "type": "bool",
          "internalType": "bool"
        }
      ],
      "stateMutability": "view"
    },
    {
      "type": "function",
      "name": "getLatestPrice",
      "inputs": [],
      "outputs": [
        {
          "name": "",
          "type": "int256",
          "internalType": "int256"
        }
      ],
      "stateMutability": "view"
    },
    {
      "type": "function",
      "name": "owner",
      "inputs": [],
      "outputs": [
        {
          "name": "",
          "type": "address",
          "internalType": "address"
        }
      ],
      "stateMutability": "view"
    },
    {
      "type": "function",
      "name": "placeBet",
      "inputs": [
        {
          "name": "_direction",
          "type": "uint8",
          "internalType": "enum Betrea.BetDirection"
        }
      ],
      "outputs": [],
      "stateMutability": "payable"
    },
    {
      "type": "function",
      "name": "settleBet",
      "inputs": [
        {
          "name": "_betId",
          "type": "uint256",
          "internalType": "uint256"
        }
      ],
      "outputs": [],
      "stateMutability": "nonpayable"
    },
    {
      "type": "function",
      "name": "withdraw",
      "inputs": [],
      "outputs": [],
      "stateMutability": "nonpayable"
    },
    {
      "type": "event",
      "name": "BetPlaced",
      "inputs": [
        {
          "name": "betId",
          "type": "uint256",
          "indexed": true,
          "internalType": "uint256"
        },
        {
          "name": "player",
          "type": "address",
          "indexed": true,
          "internalType": "address"
        },
        {
          "name": "direction",
          "type": "uint8",
          "indexed": false,
          "internalType": "enum Betrea.BetDirection"
        },
        {
          "name": "amount",
          "type": "uint256",
          "indexed": false,
          "internalType": "uint256"
        },
        {
          "name": "targetPrice",
          "type": "uint256",
          "indexed": false,
          "internalType": "uint256"
        }
      ],
      "anonymous": false
    },
    {
      "type": "event",
      "name": "BetSettled",
      "inputs": [
        {
          "name": "betId",
          "type": "uint256",
          "indexed": true,
          "internalType": "uint256"
        },
        {
          "name": "player",
          "type": "address",
          "indexed": true,
          "internalType": "address"
        },
        {
          "name": "won",
          "type": "bool",
          "indexed": false,
          "internalType": "bool"
        },
        {
          "name": "payout",
          "type": "uint256",
          "indexed": false,
          "internalType": "uint256"
        }
      ],
      "anonymous": false
    }
  ],
  "bytecode": {
    "object": "0x608060405234801561001057600080fd5b50600080546001600160a01b03199081167343a444ac5d00b96daf62bc00c50fa47c1afcf3c31790915560038054909116331790556108c4806100546000396000f3fe6080604052600436106100705760003560e01c8063430468441161004e57806343046844146101205780638da5cb5b146101335780638e15f4731461016b578063cf0944971461018e57600080fd5b806316fd381a1461007557806322af00fa146100975780633ccfd60b1461010b575b600080fd5b34801561008157600080fd5b50610095610090366004610700565b6101a4565b005b3480156100a357600080fd5b506100f16100b2366004610700565b600160208190526000918252604090912080549181015460028201546003909201546001600160a01b0384169360ff600160a01b909104811693911685565b604051610102959493929190610751565b60405180910390f35b34801561011757600080fd5b506100956103fe565b61009561012e36600461078c565b6104d5565b34801561013f57600080fd5b50600354610153906001600160a01b031681565b6040516001600160a01b039091168152602001610102565b34801561017757600080fd5b50610180610687565b604051908152602001610102565b34801561019a57600080fd5b5061018060025481565b6003546001600160a01b031633146101fe5760405162461bcd60e51b81526020600482015260186024820152774f6e6c79206f776e65722063616e2063616c6c207468697360401b60448201526064015b60405180910390fd5b6000818152600160205260409020600381015460ff16156102575760405162461bcd60e51b815260206004820152601360248201527210995d08185b1c9958591e481cd95d1d1b1959606a1b60448201526064016101f5565b60008060009054906101000a90046001600160a01b03166001600160a01b031663feaf968c6040518163ffffffff1660e01b815260040160a060405180830381865afa1580156102ab573d6000803e3d6000fd5b505050506040513d601f19601f820116820180604052508101906102cf91906107d3565b50919350839250600091508190508454600160a01b900460ff1660018111156102fa576102fa610719565b14801561030a5750836002015482115b8061033f575060018454600160a01b900460ff16600181111561032f5761032f610719565b14801561033f5750836002015482105b15610348575060015b6000811561039c576001850154610360906002610839565b85546040519192506001600160a01b03169082156108fc029083906000818181858888f1935050505015801561039a573d6000803e3d6000fd5b505b60038501805460ff191660011790558454604080518415158152602081018490526001600160a01b039092169188917fe730d6310bec1dfc964bdf1e3f75a78c8ef2dee9d092f9ff09253258852ed7d4910160405180910390a3505050505050565b6003546001600160a01b031633146104535760405162461bcd60e51b81526020600482015260186024820152774f6e6c79206f776e65722063616e2063616c6c207468697360401b60448201526064016101f5565b47806104975760405162461bcd60e51b81526020600482015260136024820152724e6f206665657320746f20776974686472617760681b60448201526064016101f5565b6003546040516001600160a01b039091169082156108fc029083906000818181858888f193505050501580156104d1573d6000803e3d6000fd5b5050565b60008060009054906101000a90046001600160a01b03166001600160a01b031663feaf968c6040518163ffffffff1660e01b815260040160a060405180830381865afa158015610529573d6000803e3d6000fd5b505050506040513d601f19601f8201168201806040525081019061054d91906107d3565b50506002805492945084935060009291508261056883610856565b9190505590506040518060a00160405280336001600160a01b0316815260200185600181111561059a5761059a610719565b81523460208083019190915260408083018690526000606090930183905284835260018083529220835181546001600160a01b039091166001600160a01b0319821681178355928501519193919284926001600160a81b03199092161790600160a01b90849081111561060f5761060f610719565b02179055506040828101516001830155606083015160028301556080909201516003909101805460ff191691151591909117905551339082907fbfcd8f4e47cc529f86cdc7eab8fb80e015a298e021fcaee72df1f76dd57cf487906106799088903490889061086f565b60405180910390a350505050565b6000805460408051633fabe5a360e21b8152905183926001600160a01b03169163feaf968c9160048083019260a09291908290030181865afa1580156106d1573d6000803e3d6000fd5b505050506040513d601f19601f820116820180604052508101906106f591906107d3565b509195945050505050565b60006020828403121561071257600080fd5b5035919050565b634e487b7160e01b600052602160045260246000fd5b6002811061074d57634e487b7160e01b600052602160045260246000fd5b9052565b6001600160a01b038616815260a0810161076e602083018761072f565b84604083015283606083015282151560808301529695505050505050565b60006020828403121561079e57600080fd5b8135600281106107ad57600080fd5b9392505050565b805169ffffffffffffffffffff811681146107ce57600080fd5b919050565b600080600080600060a086880312156107eb57600080fd5b6107f4866107b4565b9450602086015193506040860151925060608601519150610817608087016107b4565b90509295509295909350565b634e487b7160e01b600052601160045260246000fd5b808202811582820484141761085057610850610823565b92915050565b60006001820161086857610868610823565b5060010190565b6060810161087d828661072f565b60208201939093526040015291905056fea26469706673582212202cf751a59bbf5fbbe8ab4132d1227d12eced7e324e0e44f3b6b94e35253447ed64736f6c63430008180033",
    "linkReferences": {}
  },
  "methodIdentifiers": {
    "betCount()": "cf094497",
    "bets(uint256)": "22af00fa",
    "getLatestPrice()": "8e15f473",
    "owner()": "8da5cb5b",
    "placeBet(uint8)": "43046844",
    "settleBet(uint256)": "16fd381a",
    "withdraw()": "3ccfd60b"
  },
  "id": 0
}