{"abi":[{"type":"constructor","inputs":[],"stateMutability":"nonpayable"},{"type":"function","name":"betCount","inputs":[],"outputs":[{"name":"","type":"uint256","internalType":"uint256"}],"stateMutability":"view"},{"type":"function","name":"bets","inputs":[{"name":"","type":"uint256","internalType":"uint256"}],"outputs":[{"name":"player","type":"address","internalType":"address"},{"name":"direction","type":"uint8","internalType":"enum Betrea.BetDirection"},{"name":"timestamp","type":"uint256","internalType":"uint256"},{"name":"amount","type":"uint256","internalType":"uint256"},{"name":"currentPrice","type":"uint256","internalType":"uint256"},{"name":"roundId","type":"uint80","internalType":"uint80"},{"name":"settled","type":"bool","internalType":"bool"}],"stateMutability":"view"},{"type":"function","name":"getLatestPrice","inputs":[],"outputs":[{"name":"","type":"int256","internalType":"int256"},{"name":"","type":"uint80","internalType":"uint80"}],"stateMutability":"view"},{"type":"function","name":"getRoundPrice","inputs":[{"name":"_roundId","type":"uint256","internalType":"uint256"}],"outputs":[{"name":"","type":"int256","internalType":"int256"}],"stateMutability":"view"},{"type":"function","name":"owner","inputs":[],"outputs":[{"name":"","type":"address","internalType":"address"}],"stateMutability":"view"},{"type":"function","name":"placeBet","inputs":[{"name":"_direction","type":"uint8","internalType":"enum Betrea.BetDirection"}],"outputs":[],"stateMutability":"payable"},{"type":"function","name":"settleBet","inputs":[{"name":"_betId","type":"uint256","internalType":"uint256"}],"outputs":[],"stateMutability":"nonpayable"},{"type":"function","name":"withdraw","inputs":[],"outputs":[],"stateMutability":"nonpayable"},{"type":"event","name":"BetPlaced","inputs":[{"name":"betId","type":"uint256","indexed":true,"internalType":"uint256"},{"name":"player","type":"address","indexed":true,"internalType":"address"},{"name":"direction","type":"uint8","indexed":false,"internalType":"enum Betrea.BetDirection"},{"name":"amount","type":"uint256","indexed":false,"internalType":"uint256"},{"name":"targetPrice","type":"uint256","indexed":false,"internalType":"uint256"},{"name":"roundId","type":"uint80","indexed":false,"internalType":"uint80"}],"anonymous":false},{"type":"event","name":"BetSettled","inputs":[{"name":"betId","type":"uint256","indexed":true,"internalType":"uint256"},{"name":"player","type":"address","indexed":true,"internalType":"address"},{"name":"won","type":"bool","indexed":false,"internalType":"bool"},{"name":"payout","type":"uint256","indexed":false,"internalType":"uint256"}],"anonymous":false}],"bytecode":{"object":"0x608060405234801561001057600080fd5b50600080546001600160a01b03199081167343a444ac5d00b96daf62bc00c50fa47c1afcf3c3179091556003805490911633179055610a9d806100546000396000f3fe60806040526004361061007b5760003560e01c80638bcb06ab1161004e5780638bcb06ab146101585780638da5cb5b146101865780638e15f473146101be578063cf094497146101f057600080fd5b806316fd381a1461008057806322af00fa146100a25780633ccfd60b146101305780634304684414610145575b600080fd5b34801561008c57600080fd5b506100a061009b366004610857565b610206565b005b3480156100ae57600080fd5b506101146100bd366004610857565b6001602081905260009182526040909120805491810154600282015460038301546004909301546001600160a01b0385169460ff600160a01b909104811694916001600160501b03811691600160501b9091041687565b60405161012797969594939291906108a8565b60405180910390f35b34801561013c57600080fd5b506100a061047f565b6100a06101533660046108f9565b610556565b34801561016457600080fd5b50610178610173366004610857565b61074b565b604051908152602001610127565b34801561019257600080fd5b506003546101a6906001600160a01b031681565b6040516001600160a01b039091168152602001610127565b3480156101ca57600080fd5b506101d36107cd565b604080519283526001600160501b03909116602083015201610127565b3480156101fc57600080fd5b5061017860025481565b6003546001600160a01b031633146102605760405162461bcd60e51b81526020600482015260186024820152774f6e6c79206f776e65722063616e2063616c6c207468697360401b60448201526064015b60405180910390fd5b6000818152600160208190526040909120908101544290610282906008610937565b106102c15760405162461bcd60e51b815260206004820152600f60248201526e10995d081b9bdd08195e1c1a5c9959608a1b6044820152606401610257565b6004810154600160501b900460ff16156103135760405162461bcd60e51b815260206004820152601360248201527210995d08185b1c9958591e481cd95d1d1b1959606a1b6044820152606401610257565b60048082015460009161032f916001600160501b031690610950565b90506000610345826001600160501b031661074b565b9050806000808554600160a01b900460ff16600181111561036857610368610870565b1480156103785750846003015482115b806103ad575060018554600160a01b900460ff16600181111561039d5761039d610870565b1480156103ad5750846003015482105b156103b6575060015b6000811561041657606486600201546103cf9190610977565b6103da906078610999565b86546040519192506001600160a01b03169082156108fc029083906000818181858888f19350505050158015610414573d6000803e3d6000fd5b505b60048601805460ff60501b1916600160501b1790558554604080518415158152602081018490526001600160a01b039092169189917fe730d6310bec1dfc964bdf1e3f75a78c8ef2dee9d092f9ff09253258852ed7d4910160405180910390a350505050505050565b6003546001600160a01b031633146104d45760405162461bcd60e51b81526020600482015260186024820152774f6e6c79206f776e65722063616e2063616c6c207468697360401b6044820152606401610257565b47806105185760405162461bcd60e51b81526020600482015260136024820152724e6f206665657320746f20776974686472617760681b6044820152606401610257565b6003546040516001600160a01b039091169082156108fc029083906000818181858888f19350505050158015610552573d6000803e3d6000fd5b5050565b6000805460408051633fabe5a360e21b8152905183926001600160a01b03169163feaf968c9160048083019260a09291908290030181865afa1580156105a0573d6000803e3d6000fd5b505050506040513d601f19601f820116820180604052508101906105c491906109cc565b5050600280549395509193508392600092909150826105e283610a1c565b9190505590506040518060e00160405280336001600160a01b0316815260200186600181111561061457610614610870565b81524260208083019190915234604080840191909152606083018690526001600160501b0388166080840152600060a090930183905284835260018083529220835181546001600160a01b039091166001600160a01b0319821681178355928501519193919284926001600160a81b03199092161790600160a01b9084908111156106a1576106a1610870565b02179055506040828101516001830155606083015160028301556080830151600383015560a08301516004909201805460c0909401511515600160501b026affffffffffffffffffffff199094166001600160501b039093169290921792909217905551339082907fc98f2ea68a4a7a71c1ba228331d7b3563fd38504e881a2019cf7cef691cb71359061073c908990349088908b90610a35565b60405180910390a35050505050565b60008054604051639a6fc8f560e01b81526001600160501b038416600482015282916001600160a01b031690639a6fc8f59060240160a060405180830381865afa15801561079d573d6000803e3d6000fd5b505050506040513d601f19601f820116820180604052508101906107c191906109cc565b50919695505050505050565b60008060008060008054906101000a90046001600160a01b03166001600160a01b031663feaf968c6040518163ffffffff1660e01b815260040160a060405180830381865afa158015610824573d6000803e3d6000fd5b505050506040513d601f19601f8201168201806040525081019061084891906109cc565b50919792965091945050505050565b60006020828403121561086957600080fd5b5035919050565b634e487b7160e01b600052602160045260246000fd5b600281106108a457634e487b7160e01b600052602160045260246000fd5b9052565b6001600160a01b038816815260e081016108c56020830189610886565b6040820196909652606081019490945260808401929092526001600160501b031660a0830152151560c09091015292915050565b60006020828403121561090b57600080fd5b81356002811061091a57600080fd5b9392505050565b634e487b7160e01b600052601160045260246000fd5b8082018082111561094a5761094a610921565b92915050565b6001600160501b0381811683821601908082111561097057610970610921565b5092915050565b60008261099457634e487b7160e01b600052601260045260246000fd5b500490565b808202811582820484141761094a5761094a610921565b80516001600160501b03811681146109c757600080fd5b919050565b600080600080600060a086880312156109e457600080fd5b6109ed866109b0565b9450602086015193506040860151925060608601519150610a10608087016109b0565b90509295509295909350565b600060018201610a2e57610a2e610921565b5060010190565b60808101610a438287610886565b8460208301528360408301526001600160501b03831660608301529594505050505056fea26469706673582212205d7cdfacbb46883635ed1d69c265d6b83de767b762914132c25fdbfb2c54b77964736f6c63430008180033","linkReferences":{}},"methodIdentifiers":{"betCount()":"cf094497","bets(uint256)":"22af00fa","getLatestPrice()":"8e15f473","getRoundPrice(uint256)":"8bcb06ab","owner()":"8da5cb5b","placeBet(uint8)":"43046844","settleBet(uint256)":"16fd381a","withdraw()":"3ccfd60b"},"id":0}